{
  "address": "0x277E4e31E6C53cD6A8BABb5A4BB5B9CE3aC2f93a",
  "abi": [
    {
      "inputs": [
        {
          "internalType": "address",
          "name": "priceFeedAddress",
          "type": "address"
        }
      ],
      "stateMutability": "nonpayable",
      "type": "constructor"
    },
    {
      "inputs": [],
      "name": "FundMe__NotOwner",
      "type": "error"
    },
    {
      "stateMutability": "payable",
      "type": "fallback"
    },
    {
      "inputs": [],
      "name": "MIN_USD",
      "outputs": [
        {
          "internalType": "uint256",
          "name": "",
          "type": "uint256"
        }
      ],
      "stateMutability": "view",
      "type": "function"
    },
    {
      "inputs": [],
      "name": "fund",
      "outputs": [],
      "stateMutability": "payable",
      "type": "function"
    },
    {
      "inputs": [],
      "name": "i_owner",
      "outputs": [
        {
          "internalType": "address",
          "name": "",
          "type": "address"
        }
      ],
      "stateMutability": "view",
      "type": "function"
    },
    {
      "inputs": [
        {
          "internalType": "address",
          "name": "",
          "type": "address"
        }
      ],
      "name": "s_addressToAmountFunded",
      "outputs": [
        {
          "internalType": "uint256",
          "name": "",
          "type": "uint256"
        }
      ],
      "stateMutability": "view",
      "type": "function"
    },
    {
      "inputs": [
        {
          "internalType": "uint256",
          "name": "",
          "type": "uint256"
        }
      ],
      "name": "s_funders",
      "outputs": [
        {
          "internalType": "address",
          "name": "",
          "type": "address"
        }
      ],
      "stateMutability": "view",
      "type": "function"
    },
    {
      "inputs": [],
      "name": "s_priceFeed",
      "outputs": [
        {
          "internalType": "contract AggregatorV3Interface",
          "name": "",
          "type": "address"
        }
      ],
      "stateMutability": "view",
      "type": "function"
    },
    {
      "inputs": [],
      "name": "withdraw",
      "outputs": [],
      "stateMutability": "nonpayable",
      "type": "function"
    },
    {
      "stateMutability": "payable",
      "type": "receive"
    }
  ],
  "transactionHash": "0x02dbd41ae84358d6fea041dba055080e23f43d935879ecd924b8fea68884e175",
  "args": [
    "0x8A753747A1Fa494EC906cE90E9f37563A8AF630e"
  ],
  "numDeployments": 2,
  "solcInputHash": "d3516578e9d94776121fdc5bdad53da4",
  "bytecode": "0x60a060405234801561001057600080fd5b5060405162000fdc38038062000fdc83398181016040528101906100349190610112565b3373ffffffffffffffffffffffffffffffffffffffff1660808173ffffffffffffffffffffffffffffffffffffffff168152505080600260006101000a81548173ffffffffffffffffffffffffffffffffffffffff021916908373ffffffffffffffffffffffffffffffffffffffff1602179055505061013f565b600080fd5b600073ffffffffffffffffffffffffffffffffffffffff82169050919050565b60006100df826100b4565b9050919050565b6100ef816100d4565b81146100fa57600080fd5b50565b60008151905061010c816100e6565b92915050565b600060208284031215610128576101276100af565b5b6000610136848285016100fd565b91505092915050565b608051610e7a620001626000396000818161031d01526106000152610e7a6000f3fe6080604052600436106100745760003560e01c80633ccfd60b1161004e5780633ccfd60b1461012057806354861af714610137578063b60d428814610174578063dba6335f1461017e57610083565b80630ec3b0271461008d5780631bf6132d146100b8578063213dbea2146100f557610083565b36610083576100816101a9565b005b61008b6101a9565b005b34801561009957600080fd5b506100a26102d1565b6040516100af9190610824565b60405180910390f35b3480156100c457600080fd5b506100df60048036038101906100da9190610882565b6102f7565b6040516100ec91906108c8565b60405180910390f35b34801561010157600080fd5b5061010a61030f565b60405161011791906108c8565b60405180910390f35b34801561012c57600080fd5b5061013561031b565b005b34801561014357600080fd5b5061015e6004803603810190610159919061090f565b6105bf565b60405161016b919061094b565b60405180910390f35b61017c6101a9565b005b34801561018a57600080fd5b506101936105fe565b6040516101a0919061094b565b60405180910390f35b678ac7230489e800006101e7600260009054906101000a900473ffffffffffffffffffffffffffffffffffffffff163461062290919063ffffffff16565b1015610228576040517f08c379a000000000000000000000000000000000000000000000000000000000815260040161021f906109c3565b60405180910390fd5b6000339080600181540180825580915050600190039060005260206000200160009091909190916101000a81548173ffffffffffffffffffffffffffffffffffffffff021916908373ffffffffffffffffffffffffffffffffffffffff16021790555034600160003373ffffffffffffffffffffffffffffffffffffffff1673ffffffffffffffffffffffffffffffffffffffff16815260200190815260200160002081905550565b600260009054906101000a900473ffffffffffffffffffffffffffffffffffffffff1681565b60016020528060005260406000206000915090505481565b678ac7230489e8000081565b7f000000000000000000000000000000000000000000000000000000000000000073ffffffffffffffffffffffffffffffffffffffff163373ffffffffffffffffffffffffffffffffffffffff16146103a0576040517f579610db00000000000000000000000000000000000000000000000000000000815260040160405180910390fd5b60008080548060200260200160405190810160405280929190818152602001828054801561042357602002820191906000526020600020905b8160009054906101000a900473ffffffffffffffffffffffffffffffffffffffff1673ffffffffffffffffffffffffffffffffffffffff16815260200190600101908083116103d9575b5050505050905060005b81518110156104ae57600082828151811061044b5761044a6109e3565b5b602002602001015190506000600160008373ffffffffffffffffffffffffffffffffffffffff1673ffffffffffffffffffffffffffffffffffffffff168152602001908152602001600020819055505080806104a690610a41565b91505061042d565b50600067ffffffffffffffff8111156104ca576104c9610a8a565b5b6040519080825280602002602001820160405280156104f85781602001602082028036833780820191505090505b506000908051906020019061050e9291906106fe565b5060003373ffffffffffffffffffffffffffffffffffffffff164760405161053590610aea565b60006040518083038185875af1925050503d8060008114610572576040519150601f19603f3d011682016040523d82523d6000602084013e610577565b606091505b50509050806105bb576040517f08c379a00000000000000000000000000000000000000000000000000000000081526004016105b290610b4b565b60405180910390fd5b5050565b600081815481106105cf57600080fd5b906000526020600020016000915054906101000a900473ffffffffffffffffffffffffffffffffffffffff1681565b7f000000000000000000000000000000000000000000000000000000000000000081565b60008061062e8361065e565b90506000670de0b6b3a764000085836106479190610b6b565b6106519190610bf4565b9050809250505092915050565b6000808273ffffffffffffffffffffffffffffffffffffffff1663feaf968c6040518163ffffffff1660e01b815260040160a06040518083038186803b1580156106a757600080fd5b505afa1580156106bb573d6000803e3d6000fd5b505050506040513d601f19601f820116820180604052508101906106df9190610cb2565b5050509150506402540be400816106f69190610d2d565b915050919050565b828054828255906000526020600020908101928215610777579160200282015b828111156107765782518260006101000a81548173ffffffffffffffffffffffffffffffffffffffff021916908373ffffffffffffffffffffffffffffffffffffffff1602179055509160200191906001019061071e565b5b5090506107849190610788565b5090565b5b808211156107a1576000816000905550600101610789565b5090565b600073ffffffffffffffffffffffffffffffffffffffff82169050919050565b6000819050919050565b60006107ea6107e56107e0846107a5565b6107c5565b6107a5565b9050919050565b60006107fc826107cf565b9050919050565b600061080e826107f1565b9050919050565b61081e81610803565b82525050565b60006020820190506108396000830184610815565b92915050565b600080fd5b600061084f826107a5565b9050919050565b61085f81610844565b811461086a57600080fd5b50565b60008135905061087c81610856565b92915050565b6000602082840312156108985761089761083f565b5b60006108a68482850161086d565b91505092915050565b6000819050919050565b6108c2816108af565b82525050565b60006020820190506108dd60008301846108b9565b92915050565b6108ec816108af565b81146108f757600080fd5b50565b600081359050610909816108e3565b92915050565b6000602082840312156109255761092461083f565b5b6000610933848285016108fa565b91505092915050565b61094581610844565b82525050565b6000602082019050610960600083018461093c565b92915050565b600082825260208201905092915050565b7f4469646e742073656e642065686f756768000000000000000000000000000000600082015250565b60006109ad601183610966565b91506109b882610977565b602082019050919050565b600060208201905081810360008301526109dc816109a0565b9050919050565b7f4e487b7100000000000000000000000000000000000000000000000000000000600052603260045260246000fd5b7f4e487b7100000000000000000000000000000000000000000000000000000000600052601160045260246000fd5b6000610a4c826108af565b91507fffffffffffffffffffffffffffffffffffffffffffffffffffffffffffffffff821415610a7f57610a7e610a12565b5b600182019050919050565b7f4e487b7100000000000000000000000000000000000000000000000000000000600052604160045260246000fd5b600081905092915050565b50565b6000610ad4600083610ab9565b9150610adf82610ac4565b600082019050919050565b6000610af582610ac7565b9150819050919050565b7f43616c6c206661696c6564282828280000000000000000000000000000000000600082015250565b6000610b35600f83610966565b9150610b4082610aff565b602082019050919050565b60006020820190508181036000830152610b6481610b28565b9050919050565b6000610b76826108af565b9150610b81836108af565b9250817fffffffffffffffffffffffffffffffffffffffffffffffffffffffffffffffff0483118215151615610bba57610bb9610a12565b5b828202905092915050565b7f4e487b7100000000000000000000000000000000000000000000000000000000600052601260045260246000fd5b6000610bff826108af565b9150610c0a836108af565b925082610c1a57610c19610bc5565b5b828204905092915050565b600069ffffffffffffffffffff82169050919050565b610c4481610c25565b8114610c4f57600080fd5b50565b600081519050610c6181610c3b565b92915050565b6000819050919050565b610c7a81610c67565b8114610c8557600080fd5b50565b600081519050610c9781610c71565b92915050565b600081519050610cac816108e3565b92915050565b600080600080600060a08688031215610cce57610ccd61083f565b5b6000610cdc88828901610c52565b9550506020610ced88828901610c88565b9450506040610cfe88828901610c9d565b9350506060610d0f88828901610c9d565b9250506080610d2088828901610c52565b9150509295509295909350565b6000610d3882610c67565b9150610d4383610c67565b9250827f7fffffffffffffffffffffffffffffffffffffffffffffffffffffffffffffff0482116000841360008413161615610d8257610d81610a12565b5b817f80000000000000000000000000000000000000000000000000000000000000000583126000841260008413161615610dbf57610dbe610a12565b5b827f80000000000000000000000000000000000000000000000000000000000000000582126000841360008412161615610dfc57610dfb610a12565b5b827f7fffffffffffffffffffffffffffffffffffffffffffffffffffffffffffffff0582126000841260008412161615610e3957610e38610a12565b5b82820290509291505056fea2646970667358221220c19f78ceb09911a3fb34dfa1b4ba7cd670416fd14f65b73307afb6f6614d210764736f6c63430008090033",
  "devdoc": {
    "kind": "dev",
    "methods": {},
    "version": 1
  },
  "userdoc": {
    "kind": "user",
    "methods": {},
    "version": 1
  },
  "storageLayout": {
    "storage": [
      {
        "astId": 61,
        "contract": "contracts/FundMe.sol:FundMe",
        "label": "s_funders",
        "offset": 0,
        "slot": "0",
        "type": "t_array(t_address)dyn_storage"
      },
      {
        "astId": 65,
        "contract": "contracts/FundMe.sol:FundMe",
        "label": "s_addressToAmountFunded",
        "offset": 0,
        "slot": "1",
        "type": "t_mapping(t_address,t_uint256)"
      },
      {
        "astId": 70,
        "contract": "contracts/FundMe.sol:FundMe",
        "label": "s_priceFeed",
        "offset": 0,
        "slot": "2",
        "type": "t_contract(AggregatorV3Interface)45"
      }
    ],
    "types": {
      "t_address": {
        "encoding": "inplace",
        "label": "address",
        "numberOfBytes": "20"
      },
      "t_array(t_address)dyn_storage": {
        "base": "t_address",
        "encoding": "dynamic_array",
        "label": "address[]",
        "numberOfBytes": "32"
      },
      "t_contract(AggregatorV3Interface)45": {
        "encoding": "inplace",
        "label": "contract AggregatorV3Interface",
        "numberOfBytes": "20"
      },
      "t_mapping(t_address,t_uint256)": {
        "encoding": "mapping",
        "key": "t_address",
        "label": "mapping(address => uint256)",
        "numberOfBytes": "32",
        "value": "t_uint256"
      },
      "t_uint256": {
        "encoding": "inplace",
        "label": "uint256",
        "numberOfBytes": "32"
      }
    }
  }
}